:020000040000FA
:030000000200E318
:03003300020703BE
:03004B0002062486
:03006B0002063D4D
:03007B000206A1D9
:100083000205F000000080FB120113B90003020017
:10009300CDE4900200784D79038002F0A3D8FCD917
:1000A300FA90044CAA82AB8390011678A27901805E
:1000B30015E493A3AC82AD838A828B83F0A3AA82D7
:1000C300AB838C828D83D8E9D9E77582A2758311BE
:1000D30074001200F575828675830074001200F5B2
:1000E30075D0007581BF751000751102759F0002F0
:1000F300008BC09FF59FE473D09F22D083D082C032
:100103009FE493C0E0740193C0E0740293F59F22CF
:100113007901223234323000323433300032343316
:10012300310032353230003235333000323533313D
:100133000032353130003235313100313131300068
:1001430031313131002D2D2D2D00202020434378D6
:100153007878782028202900202020000000000043
:10016300000000000000000000000000000000008C
:100173000000000000005A0050455220546573747B
:10018300657200FF0000000000000000000000494D
:100193000000000010270000FFFFFFFF0100000028
:1001A300E703000063000000640000000A00000091
:1001B300E80300001200FE5A07001200FE40080088
:1001C3001200FEC808001200FEFA09001200FE2EFB
:1001D3000A001200FE570A001200FE840A001200F1
:1001E300FEAB0A001200FECE0A001200FEE60A0071
:1001F3001200FEF60A001200FE0B0B001200FE2C8A
:100203000B001200FE7A0B001200FEA40B0012007A
:10021300FED30B001200FEEE0C001200FE220D00B6
:100223001200FE2F0D001200FE2011001200FEC866
:1002330012001200FE0E13001200FE4413001200FF
:10024300FE651200E066701008A3E066700A08A35A
:10025300E066700408A3E06622C3E09608A3E09674
:1002630008A3E09608A3E096A2D265D03322C3E0A8
:100273009608A3E09608A3E09608A3E09622E4CFAD
:10028300C0E0E4CEC0E0E4CDC0E0E4CCC0E075F073
:1002930020C3E633F608E633F608E633F608E6331A
:1002A300F6181818EC33FCED33FDEE33FEEF33FF95
:1002B300C3EC9709ED9709EE9709EF9719191940C0
:1002C3000FFFEC97FC09ED97FD09EE97FE19190650
:1002D300D5F0BEECF709EDF709EEF709EFF71919B9
:1002E30019D0E0FCD0E0FDD0E0FED0E0FF22120305
:1002F30059181818120281120348191919221203E6
:1003030048191919080808E618181820E7E0120216
:100313008112035918181822090909E71919192014
:10032300E7DC080808E618181820E7030202811220
:1003330003591818181202811203591818181203B6
:100343004819191922E4C397F709E497F709E497C1
:10035300F709E497F722E4C396F608E496F608E46F
:1003630096F608E496F622E026F608A3E036F608A9
:10037300A3E036F608A3E036F622E026F008A3E071
:1003830036F008A3E036F008A3E036F022C3E0C657
:1003930096F608A3E0C696F608A3E0C696F608A369
:1003A300E0C696F622E0F608A3E0F608A3E0F60816
:1003B300A3E0F622E6F008A3E6F008A3E6F008A31C
:1003C300E6F022E0FAA3E0FBA3E0FCA3E0FD22EACF
:1003D300F0A3EBF0A3ECF0A3EDF022CAC0E0E6F04B
:1003E300A308DAFAD0E0FA22CAC0E0E0A3C582CCBF
:1003F300C582C583CDC583F0A3C582CCC582C58321
:10040300CDC583DAE6D0E0CA22700422600D18C697
:10041300C333C608C633C6D5E0F41822251010AF7F
:1004230008F510400215118008F51040021511D28D
:10043300AF22C0D0251010AF08F51050020511806F
:1004430008F51050020511D2AFD0D0222510F58245
:1004530010AF08F510400215118008F51040021581
:1004630011D2AF851183222510F582E43511F5836E
:1004730022E4732510C582C0E0E51134FFC583C0B3
:10048300E0E510C3958224F810AF088583118582B7
:10049300108008858311858210D2AFCEF0A3E520AA
:1004A300F0A37808E608F0A3DEFAEFF0A3E58124D1
:1004B300FAF8E608F0A3E608F0A3E608F0A30808B4
:1004C300E608F0A3E608F0A315811581D0E0FED07D
:1004D300E0F8158115811581E8C0E0EEC0E02285C2
:1004E3001183851082E0A3FEE0A3F5207808E0A342
:1004F300F608DFFAE0A3FFE0A3C0E0E0A3C0E0E07A
:10050300A3C0E0E0A3C0E0E0A3C0E010AF08858291
:10051300108583118008858210858311D2AFD08323
:10052300D0820200FBC0D02510C582C0E0E51134A3
:10053300FFC583C0E0E510C3958224F310AF08859F
:1005430083118582108008858311858210D2AFC8FC
:10055300F0A3E9F0A3EAF0A3EBF0A37908E709F02D
:10056300A3D8FAECF0A3EDF0A3EEF0A3EFF0A3D041
:10057300E0F0A3D0E0F0A3D0E0F0A3E520F0A3E502
:10058300F0F0A322851183851082E0C0E0A3E0F997
:10059300A3E0FAA3E0FBA37808E0F608A3DFFAE000
:1005A300FCA3E0FDA3E0FEA3E0FFA3E0C0E0A3E023
:1005B300C0E0A3E0F5D0A3E0F520A3E0A3F5F0109D
:1005C300AF08858311858210800885831185821089
:1005D300D2AFD082D083D0E0F8D0E0327402800072
:1005E300C0E0F40412044FD0E01203DE22C0E07432
:1005F300F2120528A2AFE433FEC2AFE5E9A2E6504A
:10060300169002FC1206996008E0F58388821204B2
:1006130074759B0053E9BFEEA2E092AF7F01020520
:1006230087C0E074F21205289002FE120699600852
:10063300E0F583888212047480E2C0E074F112054D
:1006430028C2C5E58960477E00750801750900EE7B
:10065300780812040CAF08E5895F602BEEC333F80A
:10066300E433F9740028F58274031206966014EEDD
:10067300C333F8E433F9740028F58274031206F7E0
:10068300120474EFF452890EEEC3940840BB7F0248
:1006930002058739F583E0F8A3E0F9E84922C0E0D1
:1006A30074F1120528C2EBE58A60477E00750801E4
:1006B300750900EE780812040CAF08E58A5F602B19
:1006C300EEC333F8E433F9741028F5827403120689
:1006D300966014EEC333F8E433F9741028F582748A
:1006E300031206F7120474EFF4528A0EEEC3940851
:1006F30040BB809A39F583E0F8A3E0F58388822232
:10070300C0E074F1120528C2E8E58B60477E0075EE
:100713000801750900EE780812040CAF08E58B5F39
:10072300602BEEC333F8E433F9742028F5827403A5
:100733001206966014EEC333F8E433F9742028F5F7
:100743008274031206F7120474EFF4528B0EEEC395
:10075300940540BB020691C082C0831201EDD2AF63
:1007630079017A7C7B021201E790027CE0C2E7F018
:100773006405703479051208325004D2F08002C245
:10078300F0A2F0E4339004C4F0900281E0A2E740C9
:100793000302082A90027FE0F8900200E0686003F9
:1007A30002082AA37401807EE024F59004C1F0902E
:1007B300027CE0F91208325004D2F08002C2F0A2A7
:1007C300F0E4339004C4F09002841209F49004BD61
:1007D300E8F0A3E9F09004C27486F0A37402F090E9
:1007E30004C1E0F83395E0F9748628F8740239F906
:1007F30088828983E09004C5F088828983A3E0A27C
:10080300E7501C9004BCE0F890027FE06860109011
:10081300027DE054DF644170069004C67401F090D9
:10082300027FE09004BCF0C2AF1201F3020B047A22
:100833007D7B021201E790027DE0A2E52274F712AC
:100843000476EAFEEBFF1201E1E964017004790129
:10085300806EC2AF900207EEF0A3EFF09004C2E403
:10086300F0A3F090020204F09004C91203C69002B0
:10087300031203D275F0051209D5A3A3A3A3E0A421
:1008830024D490618FF09002081209DF1209F4E872
:10089300906174F0E9A3F0900207E0F8A31209EF66
:1008A300E8906172F0E9A3F0E5A8F8C2AF9002FC0A
:1008B30074B7F0A37401F0E8A2E792AFD2AF790066
:1008C3007F010204E274F5120476EAFEEBFF8C0862
:1008D3008D09890A900202E0700675E1EC75E1E387
:1008E300E9C394674003750A67906193E0542270EB
:1008F300F81201ED740B250A900209F01209E59034
:10090300020A6004746180027441F0A37488F09059
:100913000200E090020CF09002081209EF90020D21
:10092300E8F0A3E9F0A3EEF0A3EFF01209D5120962
:10093300F4900211E8F0A3E9F07A0080218A82A8FA
:1009430082E50828F582E5093400F583E0C0E07408
:100953001328F58274023400F583D0E0F00AEAC369
:10096300950A40D9740A250AF975E1EE7591FD7867
:10097300008012880874092508F58274023400F592
:1009830083E0F5D908E8C39940E91201F375E1E979
:10099300E591A2E150FA7591FD1209E5601290020A
:1009A30001E4F07A4A7B021201D5900201E060046F
:1009B300790080027901900202E0700675E1EF751B
:1009C300E1ECE9A2E04006900200E004F07F0302BC
:1009D30004E21209D922900207E0F8A3E0F5838824
:1009E30082221209D9A3A3A3A3A3E0221209DFA39E
:1009F300A3E0F8A3E0F922E5C65480F853BEFBE573
:100A03009DA2E550FAE59DA2E240F40074016970ED
:100A130007744948F5C68005E9700288C6E5C6F83B
:100A2300E59E6870FB43BE040200FBE9F8E59EA265
:100A3300E640047901801AE8700553C67F80087484
:100A43000168700343C680E5C6F9E59E6970FB79CA
:100A5300000200FBEBC313FBEA13FAEAF8EBF9E835
:100A630024FFFAE934FFFBE84960130000000000AB
:100A730000000000000000000000000080DD020014
:100A8300FB74F7120476EAFEEBFFEEF8EFF9E824C5
:100A9300FFFEE934FFFFE84960097AE87B031201AE
:100AA300D580E77F010204E2C082C083906189E0C0
:100AB3004460F09061FA7409F09061B27415F0909B
:100AC30061AEE4F01201F379008036C082C0838006
:100AD3000DE5D98A828B83F0A3AA82AB8319E970CF
:100AE300F0801EC082C0839061A3E0C2E6F0539AF7
:100AF300FE800EC082C0839061A3E0D2E6F0439AE9
:100B030001D083D0820200FBC082C083790112022C
:100B13000B790212020B790312020B790412020BF6
:100B23007A327B001201DB80E3C082C0837900123A
:100B330001CFE9601079011201C979001201CFE9EF
:100B430060031201F979001201C943FE01C2904307
:100B5300FE02C29143FE10C29443FD02C28153F3CD
:100B6300EF53FDEF438F1053F5FE53FFFE43F701A1
:100B730043F340D2AF808AC082C083E914600B1470
:100B8300600C14600D14600E8014D2908010D2910A
:100B9300800CD2948008D28190032A7401F0020B56
:100BA30004C082C083E914600B14600D14600F1439
:100BB300601180196390018014639002800F639029
:100BC30010800A63800290032AE06401F0020B04A0
:100BD30074F412047674D412041F8A088B098510E6
:100BE30082851183AC82AD83758304758283740E11
:100BF3001203EB740E12046AAC82AD837583047521
:100C03008291741E1203EB90624AE014602A14600E
:100C13005724F1601D2490602B24FD603914604239
:100C230024FC603824F8601624EC602424F0601A55
:100C3300803C7C797D04803A7C747D0480347C6FB5
:100C43007D04802E7C6A7D0480287C657D0480225F
:100C53007C607D04801C7C5B7D0480167C567D0457
:100C630080107C517D04800A7C4C7D0480047C7E52
:100C73007D04750A04750B00780A1205DF740712E8
:100C8300046AAA82AB831202417402120435906291
:100C930049E0C4540F2430C0E0740B12046AD0E05E
:100CA300F0AA08AB0912023B8A0A8B0BAE0AAF0B00
:100CB300740E12046AAA82AB8312023B8A0A8B0B5C
:100CC300EE250AF8EF350BF9C3E89411E9940050C7
:100CD30010AC08AD09740E12046AAA82AB83120227
:100CE30035742C1204357F040204E274F71204767F
:100CF30078007900801A8A828B83E0F5C1A3AA82E7
:100D0300AB83A2E950FCC2E9E8240108E93400F905
:100D1300C3E89CE99DA2D265D03340DA0208C3C080
:100D230082C08390044A7401F0020B0474F012042D
:100D3300769004CD1203C69003351203D290033488
:100D4300E480279004D178081203A890033578082B
:100D530012037D90033578081203A8E50845094579
:100D63000A450B70069003347401F09004C6E070DA
:100D73001290033578081203A8E5084509450A458A
:100D83000B70C0C2AF9004C1E0F8C394675004E88D
:100D9300FE80027E678E0875090078081205DF90D1
:100DA30004C2E0FCA3E0FD7A407B0412022F74022C
:100DB3001204359004C5E0F83395E0F99004C8E0D7
:100DC300FAE8C39AF8E99400F9900414E8F0A3E967
:100DD300F09004C6E4F0D2AF9004C1E0F8C3946786
:100DE3005006E870030210EE7903120205900440E6
:100DF3001203C69003391203D2900418E0601190D5
:100E030003391203C69004061203D2900418E4F0C7
:100E1300900405E004F064647002E4F0900406C0FA
:100E23008290033978081203A8758304D082780866
:100E3300120247701D9004D578081203A890040687
:100E4300780812037D9004051210FEE4F0A3F0026B
:100E53000EDF900406C08290033978081203A87548
:100E63008304D0827808120271503D90040E7808F2
:100E73001203A8900339780812036A9004067808CD
:100E830012039090040E78081203B7900339780880
:100E93001203A89004D5780812036A900406780810
:100EA3001203B712111480A690033978081203A80D
:100EB3009004D5780812036A90040678081203B7E1
:100EC300121114F09004C91203C690040A1203D23B
:100ED3009004C91203C690040E1203D29004D5786D
:100EE300081203A890040A780812037D90040A12DA
:100EF30003C690042C1203D290042CC0829004D910
:100F030078081203A8758304D082780812025C4023
:100F13001E9004187401F09004D51203C690040ABD
:100F23001203D29004C91203C690040E1203D29086
:100F33000416E4F0A3F0900333F01210FE1209F448
:100F4300900416E028F0A3E039F0900333E004F0B6
:100F5300C3946440E5900334E070199004141209BB
:100F6300F4C3E498FAE499FB3395E0FC9004281267
:100F730010F3800C9004DD1203C69004281203D2F0
:100F8300900416E0FAA3E0FB3395E0FC90042412EE
:100F930010F37C017D007AAF7B0412021790042CBE
:100FA300780C1203A89004E178081203A8780C794E
:100FB3000812031BE50C2430900420F090042C78D5
:100FC3000C1203A89004E178081203A8780C79089E
:100FD30012031B9004E5780C1203A87808790C120D
:100FE300031BE5082430900421F090042C780C12A4
:100FF30003A89004E578081203A8780C7908120373
:101003001BE5082430900422F07C037D007A207BCA
:101013000412021790042478081203A89004E178BC
:101023000C1203A87808790C12031B9004E5780CC2
:101033001203A87808790C12031BE50C24309004E2
:1010430019F090042478081203A89004E5780C1290
:1010530003A87808790C12031B9004E5780C12039B
:10106300A87808790C12031BE50C243090041AF0BD
:10107300900424780C1203A89004E578081203A8BE
:10108300780C790812031BE508243090041BF090B8
:10109300041D7425F07C037D007A197B041202176A
:1010A300900428780C1203A89004E578081203A88A
:1010B300780C790812031BE50C243090041EF09081
:1010C3000428780C1203A89004E578081203A87882
:1010D3000C790812031BE508243090041FF07C02EE
:1010E3007D007A1E7B04120217C2947F080204E279
:1010F300EAF0A3EBF0A3ECF0A3F02212110222E03A
:10110300C333F8E433F9743D28F582740339F58366
:10111300229004051211027401F0A3E42274F61262
:1011230004769004307420F0A374251212597003CE
:101133001201F990619074F5F09004E91203C690DE
:10114300032B1203D2900202E4F075E1EF75E1EC98
:1011530043E40C75DB0575DA1875E54453AFFEC23D
:10116300B9E5A8F8C2AF9002FE741DF0A37402F0B3
:10117300E8A2E792AF9004C91203C69004361203A3
:10118300D278008808743A2508F58274043400F58F
:1011930083E8F00804C3940640E97F020204E27581
:1011A300F10075F30C53FF3F43868043C50843C2E8
:1011B3003BC2E990044AE4F090044B04F0900432FB
:1011C3007407F0A37420F0900435E4F01201FF12C9
:1011D30001E1E9640170031201F979011202057A50
:1011E300B17B041202117A5E7B011201DB9004349D
:1011F300740BF012022990043074EFF0A374BE1242
:10120300125970031201F99002027401F075E1ECB6
:1012130075E1E3790A7C367D047AEF7BBE1201C364
:101223009004D578081203A8900436780812037D39
:101233009004D578081203A890032F780812037D31
:1012430090044AE4F0790112020B7A147B00120134
:10125300DB12022380BDF07A307B041201BDE96406
:10126300012274F6120476740A12046AE0FEA3E003
:10127300FFEAF8EBF98E088F09E50824FF1EE5095C
:1012830034FFFFE508450960338C828D83E0A3AC0E
:1012930082AD838A828B83F0A3AA82AB8370D6EE5E
:1012A300FCEFFDEC24FF1EED34FFFFEC4D600D8AD7
:1012B300828B83E4F0A3AA82AB8380E3E8FAE9FBA1
:1012C3007F020204E274F6120476740A12046AE0DE
:1012D300FEA3E0FFEAF8EBF980188C828D83E088A7
:1012E300828983F0A3A882A9838C828D83A3AC8295
:1012F300AD838E088F09E50824FF1EE50934FFFF3F
:10130300E508450970D47F020204E274F7120476FB
:10131300EAF8EBF98005A3AA82AB838A828B83E088
:1013230070F48C828D83E0A3AC82AD838A828B833D
:10133300F0A3AA82AB8370EAE8FAE9FB7F01020417
:10134300E2C082C0838A828B838001A3E070FCE5C4
:0F13530082C39AFAE5839BFBD083D0820200FB12
:04000005000000E314
:00000001FF
