:020000040000FA
:030000000200D328
:030033000206AB17
:03006B000205E5A6
:03007B0002063E3C
:1000830002095800000080FB1200E2B900030200DD
:10009300CDE4900101783179028002F0A3D8FCD934
:1000A300FA900231AA82AB839000E578137901803C
:1000B30015E493A3AC82AD838A828B83F0A3AA82D7
:1000C300AB838C828D83D8E9D9E71209901200861D
:1000D30075D0007581BF75100175110102008B7910
:1000E3000122FF00000000000000000000000000EB
:1000F30000004901E0FAA3E0FBA3E0FCA3E0FD223A
:10010300EAF0A3EBF0A3ECF0A3EDF022700422607D
:100113000D18C6C333C608C633C6D5E0F41822E4A7
:10012300732510C582C0E0E51134FFC583C0E0E547
:1001330010C3958224F910AF08858311858210803E
:1001430008858311858210D2AFCEF0A3E520F0A3FA
:100153007808E608F0A3DEFAEFF0A3E58124FBF8C4
:10016300E608F0A3E608F0A30808E608F0A3E6080B
:10017300F0A315811581D0E0FED0E0F8158115813B
:10018300E8C0E0EEC0E022851183851082E0A3FE83
:10019300E0A3F5207808E0A3F608DFFAE0A3FFE088
:1001A300A3C0E0E0A3C0E0E0A3C0E0E0A3C0E01090
:1001B300AF0885821085831180088582108583119D
:1001C300D2AFD083D08222C0D02510C582C0E0E553
:1001D3001134FFC583C0E0E510C3958224F310AF4B
:1001E300088583118582108008858311858210D24A
:1001F300AFC8F0A3E9F0A3EAF0A3EBF0A37908E713
:1002030009F0A3D8FAECF0A3EDF0A3EEF0A3EFF01E
:10021300A3D0E0F0A3D0E0F0A3D0E0F0A3E520F07A
:10022300A3E5F0F0A322851183851082E0C0E0A34B
:10023300E0F9A3E0FAA3E0FBA37808E0F608A3DF64
:10024300FAE0FCA3E0FDA3E0FEA3E0FFA3E0C0E02F
:10025300A3E0C0E0A3E0F5D0A3E0F520A3E0A3F57D
:10026300F010AF088583118582108008858311857E
:100273008210D2AFD082D083D0E0F8D0E032C082F7
:10028300C08312090E12070279017A7D7B011208DD
:10029300D890017DE0C2E7F06405703D79057A7E70
:1002A3007B011208D8A3E0A2E55004D2F08002C279
:1002B300F0A2F0E433900239F0900182E0A2E7402B
:1002C30003020365900180E0F8900101E068600398
:1002D300020365A37401020364E024F5900236F07F
:1002E30090017DE0F97A7E7B011208D8A3E0A2E5B4
:1002F3005004D2F08002C2F0A2F0E433900239F04D
:10030300900185E0F8A3E0F9900232E8F0A3E9F068
:100313009002377487F0A37401F0900236E0F8334B
:1003230095E0F9748728F8740139F988828983E0A4
:1003330090023AF088828983A3E0A2E7501C9002DE
:1003430031E0F8900180E068601090017EE054DFB6
:100353006441700690023B7401F0900180E09002CA
:1003630031F012070512091F807AC082C0838A8286
:100373008B83120807E96401700479018052120724
:1003830005A882A983900108E8F0A3E9F090023759
:10039300E4F0A3F090010304F090023D1200F79003
:1003A30001041201031203D5A3A3E0F91208611299
:1003B30004D1FAA3E0FB1208711203D5E0FAA3E01B
:1003C300FB12087B7A817B02120930120702790043
:1003D30080121203D922900108E0F8A3E0F5838884
:1003E30082A3A322D083D0822274F6120124EAFED0
:1003F300EBFF8C088D09890A900103E07003120951
:10040300007A67A90A120A00E9F50A1209491209D2
:100413000E740B250A90010AF01204DE90010B60A2
:1004230004746180027441F0A37488F0900101E0C8
:1004330090010DF09001091203DFE0F8A3E0F990B9
:10044300010EE8F0A3E9F0A3EEF0A3EFF01204D15C
:10045300F8A3E0F9900112E8F0A3E9F07A00802113
:100463008A82A882E50828F582E5093400F583E04D
:10047300C0E0741428F58274013400F583D0E0F0F1
:100483000AEAC3950A40D9740A250AF97A0A7B0154
:100493001208AB12091F1208F11204DE600F90015B
:1004A30002E4F07A4A7B021207B4E060047E008023
:1004B300027E01900103E07003120907EEA2E040FF
:1004C30006900101E004F0EEF97F0302018A900136
:1004D30008E0F8A3E0F5838882E0221203D9A3A3FE
:1004E300A3E022C082C083900103E4F01209070253
:1004F30003E7E5C65480F853BEFBE59DA2E550FA39
:10050300E59DA2E240F4007401697007744948F55F
:10051300C68005E9700288C6E5C6F8E59E6870FBEB
:1005230043BE0422E9F8E59EA2E64003790122E8EE
:10053300700553C67F8008740168700343C680E565
:10054300C6F9E59E6970FB79002279011207697982
:1005530002120769790312076979041207697A326B
:100563007B001207DF80E312079743FE01C290432B
:10057300FE02C29143FE10C29443FD02C28153F3B3
:10058300EF53FDEF438F1053F5FE53FFFE43F70187
:1005930043F34002070253F3EF53FDEF438F10225F
:1005A300C082C0837900120599A28450227800A2E8
:1005B30084500478007900E8240108E93400F9C381
:1005C300E894F4E99401A2D265D03340E27901536F
:1005D300F3FD900227E0A2E0928143FD02D083D095
:1005E3008222C0E074F11201CAC2C5E58960477E68
:1005F30000750801750900EE780812010FAF08E5D0
:10060300895F602BEEC333F8E433F974FD28F58278
:1006130074011206946014EEC333F8E433F974FDE5
:1006230028F582740112069F120122EFF452890EFB
:10063300EEC3940840BB7F02020229C0E074F112AA
:1006430001CAC2EBE58A60477E007508017509009F
:10065300EE780812010FAF08E58A5F602BEEC33313
:10066300F8E433F9740D28F58274021206946014C9
:10067300EEC333F8E433F9740D28F58274021206DD
:100683009F120122EFF4528A0EEEC3940840BB80FE
:10069300A539F583E0F8A3E0F9E8492239F583E0C9
:1006A300F8A3E0F583888222C0E074F11201CAC284
:1006B300E8E58B60477E00750801750900EE780850
:1006C30012010FAF08E58B5F602BEEC333F8E43301
:1006D300F9741D28F58274021206946014EEC33374
:1006E300F8E433F9741D28F582740212069F12018F
:1006F30022EFF4528B0EEEC3940540BB020639D2AF
:10070300AF22C2AF2253F5FE53FFFE43F70143F37B
:100713004022C082C083E914600B14600C14600D86
:1007230014600E8014D2908010D291800CD29480E9
:1007330008D2819002277401F0D083D08222C08234
:10074300C083E914600B14600C14600D14600E80F8
:1007530013C290800FC291800BC2948007C2819014
:100763000227E4F080D3C082C083E914600B1460D5
:100773000D14600F1460118019639001801463904D
:1007830002800F639010800A638002900227E06466
:1007930001F080A57900120527E9601079011204A0
:1007A300F57900120527E9600312054D790002046B
:1007B300F5EBC313FBEA13FAEAF8EBF9E824FFFAC3
:1007C300E934FFFBE849601300000000000000006B
:1007D30000000000000000000080DD2274F8120118
:1007E30024EAFEEBFFEEF8EFF9E824FFFEE934FF1D
:1007F300FFE84960097AE87B031207B480E77F01C9
:1008030002018A22C082C083906189E04460F09033
:1008130061FA7409F09061B27415F09061AEE4F07E
:10082300900242E060289061B27415F09061AEE4EA
:10083300F09061EB7468F0A3746AF090624474FB07
:10084300F090624704F043FD807901120885120994
:100853001F79008004F0EBA3F0D083D08222C08202
:10086300C08375F005E9A424D490618F80EAC08227
:10087300C083EA90617480DDC082C083EA906172B4
:1008830080D3C082C083E9700FC2877408001470DC
:10089300FC9002417443800DD2877408001470FCED
:1008A300900241744F02085B74F712012475E1EE64
:1008B3007591FD780080031208C7E8C39940F87F5B
:1008C3000202018A8808EA2508F582EB3400F583E1
:1008D300E0F5D90822C082C083800DE5D98A828BD6
:1008E30083F0A3AA82AB8319E970F002085C75E177
:1008F300E9E591A2E150FA7591FD79002275E1ECE9
:1009030075E1E32275E1EF75E1EC22C082C08390CB
:1009130061A3E0C2E6F0539AFE02085CC082C08382
:100923009061A3E0D2E6F0439A0102085CC082C062
:1009330083E5A8F8C2AF900228EAF0A3EBF0E8A29F
:10094300E792AF02085CC082C083906193E05422B7
:1009530070F802085CC0E074F21201CAA2AFE4337B
:10096300FEC2AFE5E9A2E6501A900228E0F8A3E040
:10097300F9E8496008E0F5838882120122759B003B
:1009830053E9BFEEA2E092AF7F0102022990022D4C
:100993007407F0A37420F0A37419F0A37401F01288
:1009A300056A120708120807E96401700312054D6E
:1009B3007902120715790112074190022B7420F076
:1009C300A37425F07A2B7B0212036DE96401700393
:1009D30012054D90022AE4F01204E61205A3E9641D
:1009E3000170F879017C2A7D027AEF7BBE1203EC59
:1009F300120705790312080612070280DEE9C39A7B
:060A0300500122EAF92275
:04000005000000D324
:00000001FF
