:020000040000FA
:030000000200D328
:030033000207CAF7
:03004B00020B1D88
:03006B0002070485
:03007B0002075D1C
:10008300020A9100000080FB1200E2B900030200A3
:10009300CDE4900101783E79028002F0A3D8FCD927
:1000A300FA90023EAA82AB839000E578A979018099
:1000B30015E493A3AC82AD838A828B83F0A3AA82D7
:1000C300AB838C828D83D8E9D9E7120C03120086A7
:1000D30075D0007581BF75100175110102008B7910
:1000E3000122FF00000000000000000000000000EB
:1000F300000049015045522054657374657200E84D
:100103000300000100000032343230003234333057
:10011300003234333100323532300032353330007F
:10012300323533310032353130003235313100313F
:100133003131300031313131002D2D2D2D00202072
:100143002043437878787820282029002020200035
:10015300000000000000000000000000000000009C
:100163000000000000000000000003070E0E1C1931
:100173001B1B1B1B191C0E0E0703181E0703181C41
:10018300060000061C1803071E18C008C3E096F5F6
:100193000808A3E096420808A3E096420808A3E0F3
:1001A3009645087001D3D00822E026F008A3E03674
:1001B300F008A3E036F008A3E036F022E0F608A347
:1001C300E0F608A3E0F608A3E0F622E0FAA3E0FBDA
:1001D300A3E0FCA3E0FD22EAF0A3EBF0A3ECF0A381
:1001E300EDF022CAC0E0E6F0A308DAFAD0E0FA2282
:1001F300CAC0E0E0A3C582CCC582C583CDC583F068
:10020300A3C582CCC582C583CDC583DAE6D0E0CA57
:1002130022700422600D18C6C333C608C633C6D580
:10022300E0F41822251010AF08F5104002151180D4
:1002330008F51040021511D2AF22C0D0251010AF1F
:1002430008F510500205118008F51050020511D26F
:10025300AFD0D0222510F58210AF08F5104002155B
:10026300118008F51040021511D2AF8511832225A4
:1002730010F582E43511F58322E4732510C582C09D
:10028300E0E51134FFC583C0E0E510C3958224F98E
:1002930010AF0885831185821080088583118582BC
:1002A30010D2AFCEF0A3E520F0A37808E608F0A3C0
:1002B300DEFAEFF0A3E58124FBF8E608F0A3E608F5
:1002C300F0A30808E608F0A3E608F0A3158115815A
:1002D300D0E0FED0E0F815811581E8C0E0EEC0E083
:1002E30022851183851082E0A3FEE0A3F520780820
:1002F300E0A3F608DFFAE0A3FFE0A3C0E0E0A3C0B9
:10030300E0E0A3C0E0E0A3C0E010AF088582108561
:1003130083118008858210858311D2AFD083D08268
:1003230022C0D02510C582C0E0E51134FFC583C0CB
:10033300E0E510C3958224F310AF0885831185820D
:10034300108008858311858210D2AFC8F0A3E9F02D
:10035300A3EAF0A3EBF0A37908E709F0A3D8FAEC3A
:10036300F0A3EDF0A3EEF0A3EFF0A3D0E0F0A3D061
:10037300E0F0A3D0E0F0A3E520F0A3E5F0F0A322A2
:10038300851183851082E0C0E0A3E0F9A3E0FAA31E
:10039300E0FBA37808E0F608A3DFFAE0FCA3E0FDA6
:1003A300A3E0FEA3E0FFA3E0C0E0A3E0C0E0A3E07E
:1003B300F5D0A3E0F520A3E0A3F5F010AF08858303
:1003C300118582108008858311858210D2AFD08277
:1003D300D083D0E0F8D0E03274028000C0E0F404AF
:1003E300120257D0E01201E622C082C083120A47EC
:1003F30012082179017A7D7B01120A1190017DE0B7
:10040300C2E7F06405703D79057A7E7B01120A111B
:10041300A3E0A2E55004D2F08002C2F0A2F0E433DC
:10042300900246F0900182E0A2E740030204D090DC
:100433000180E0F8900101E06860030204D0A37436
:10044300010204CFE024F5900243F090017DE0F92E
:100453007A7E7B01120A11A3E0A2E55004D2F08058
:1004630002C2F0A2F0E433900246F0900185E0F876
:10047300A3E0F990023FE8F0A3E9F0900244748707
:10048300F0A37401F0900243E0F83395E0F9748728
:1004930028F8740139F988828983E0900247F0884B
:1004A300828983A3E0A2E7501C90023EE0F890010A
:1004B30080E068601090017EE054DF644170069034
:1004C30002487401F0900180E090023EF01208248B
:1004D300120A58807AC082C0838A828B831208F5FD
:1004E300E96401700479018052120824A882A98367
:1004F300900108E8F0A3E9F0900244E4F0A3F0903F
:10050300010304F090024A1201CE9001041201DAB1
:10051300120540A3A3E0F912096712063CFAA3E00F
:10052300FB120977120540E0FAA3E0FB1209817A76
:10053300EC7B03120A691208217900801212054428
:1005430022900108E0F8A3E0F5838882A3A322D0D8
:1005530083D0822274F612027EEAFEEBFF8C088DB2
:1005630009890A900103E07003120A397A67A90A1C
:10057300120CA8E9F50A120A82120A47740B250A1B
:1005830090010AF012064990010B60047461800225
:100593007441F0A37488F0900101E090010DF09094
:1005A300010912054AE0F8A3E0F990010EE8F0A36F
:1005B300E9F0A3EEF0A3EFF012063CF8A3E0F99004
:1005C3000112E8F0A3E9F07A0080218A82A882E58B
:1005D3000828F582E5093400F583E0C0E0741428A7
:1005E300F58274013400F583D0E0F00AEAC3950A7A
:1005F30040D9740A250AF97A0A7B011209E4120A1E
:1006030058120A2A120649600F900102E4F07A4A4E
:100613007B021208A3E060047E0080027E01900149
:1006230003E07003120A40EEA2E04006900101E0ED
:1006330004F0EEF97F030202E4900108E0F8A3E07E
:10064300F5838882E022120544A3A3A3E022C0829B
:10065300C083900103E4F0120A40020552E5C65438
:1006630080F853BEFBE59DA2E550FAE59DA2E2406A
:10067300F4007401697007744948F5C68005E97090
:100683000288C6E5C6F8E59E6870FB43BE0422E90E
:10069300F8E59EA2E64003790122E8700553C67F80
:1006A3008008740168700343C680E5C6F9E59E6956
:1006B30070FB7900227901120858790212085879DF
:1006C3000312085879041208587A327B001208CEB4
:1006D30080E312088643FE01C29043FE02C29143A7
:1006E300FE10C29443FD02C28153F3EF53FDEF4367
:1006F3008F1053F5FE53FFFE43F70143F340020807
:1007030021C0E074F1120324C2C5E58960477E006D
:10071300750801750900EE7808120214AF08E5891F
:100723005F602BEEC333F8E433F974FD28F582746C
:10073300011207B36014EEC333F8E433F974FD28F0
:10074300F58274011207BE12027CEFF452890EEE99
:10075300C3940840BB7F02020383C0E074F1120319
:1007630024C2EBE58A60477E00750801750900EE37
:100773007808120214AF08E58A5F602BEEC333F8E2
:10078300E433F9740D28F58274021207B36014EE92
:10079300C333F8E433F9740D28F58274021207BEEB
:1007A30012027CEFF4528A0EEEC3940840BB80A57C
:1007B30039F583E0F8A3E0F9E8492239F583E0F855
:1007C300A3E0F583888222C0E074F1120324C2E817
:1007D300E58B60477E00750801750900EE78081205
:1007E3000214AF08E58B5F602BEEC333F8E433F9F3
:1007F300741D28F58274021207B36014EEC333F834
:10080300E433F9741D28F58274021207BE12027CC8
:10081300EFF4528B0EEEC3940540BB020758D2AFE0
:1008230022C2AF227910222222C082C083E914603F
:100833000B14600C14600D14600E8014D2908010A1
:10084300D291800CD2948008D2819002277401F057
:10085300D083D08222C082C083E914600B14600D60
:1008630014600F1460118019639001801463900267
:10087300800F639010800A638002900227E0640176
:10088300F080CD7900120692E960107901120660BA
:100893007900120692E960031206B8790002066035
:1008A300EBC313FBEA13FAEAF8EBF9E824FFFAE9DE
:1008B30034FFFBE849601300000000000000000063
:1008C300000000000000000080DD2274F812027EA8
:1008D300EAFEEBFFEEF8EFF9E824FFFEE934FFFF51
:1008E300E84960097AE87B031208A380E77F0102E5
:1008F30002E4C082C083906189E04460F09061FAB1
:100903007409F09061B27415F09061AEE4F0900256
:100913004FE060289061B27415F09061AEE4F090FE
:1009230061EB7468F0A3746AF090624474FBF09016
:10093300624704F043FD8079011209BE120A587917
:1009430000801CC082C08390624AE0F98011C0829B
:10095300C083906249E0C4540F80F0F0EBA3F0D061
:1009630083D08222C082C08375F005E9A424D49089
:10097300618F80EAC082C083EA90617480DDC082A7
:10098300C083EA90617280D3C082C083E9600E1491
:100993006015146016146017146018801A7425907B
:1009A3006190F0790080B8748580F474A580F07448
:1009B300C580EC74E580E8790180EAC082C083E9F0
:1009C300700FC2877408001470FC90024E74438049
:1009D3000DD2877408001470FC90024E744F020904
:1009E3006174F712027E75E1EE7591FD7800800364
:1009F300120A00E8C39940F87F020202E48808EA79
:100A03002508F582EB3400F583E0F5D90822C0828E
:100A1300C083800DE5D98A828B83F0A3AA82AB833E
:100A230019E970F002096275E1E9E591A2E150FA72
:100A33007591FD79002275E1EC75E1E32275E1EF33
:100A430075E1EC22C082C0839061A3E0C2E6F0535B
:100A53009AFE020962C082C0839061A3E0D2E6F0ED
:100A6300439A01020962C082C083E5A8F8C2AF902D
:100A73000228EAF0A3EBF0E8A2E792AF020962C012
:100A830082C083906193E0542270F8020962C0E04F
:100A930074F2120324A2AFE433FEC2AFE5E9A2E687
:100AA300501A900228E0F8A3E0F9E8496008E0F55D
:100AB30083888212027C759B0053E9BFEEA2E09209
:100AC300AF7F0102038374F712027E43E40CC3EB8E
:100AD300942040097EFF7FFF1206B8800F8A088B9F
:100AE3000974037808120214AE08AF09EFF5DBEEC0
:100AF300F5DA75E54453AFFEC2B97F020202E4C0E2
:100B030082C083E5A8F8C2AF90022AEAF0A3EBF013
:100B1300E8A2E792AFD083D08222C0E074F212033E
:100B23002490022AE0F8A3E0F9E8496008E0F5839D
:100B3300888212027C7F01020383C082C0839002F9
:100B43003C7401F0D083D0822274F112027E9002B1
:100B53004A780C1201BF90022C7420F0A37425F084
:100B63007A2C7B021204D8E9640170031206B87967
:100B73000212098B1206517AA37B00120AC97A3D2D
:100B83007B0B120B0290024A1201CE900232120129
:100B9300DA7800880874362508F58274023400F583
:100BA30083E8F00804C3940640E990023DE060FA4C
:100BB30090025B780C12018D4030790A7C327D0201
:100BC3007AEF7BBE12055790025F78081201BF903F
:100BD300023278081201AC90023CE4F07901120869
:100BE300587AF47B011208CE800C90023DE0700429
:100BF30074018001E4F090024A780C1201BF80AACC
:100C030090023CE4F090023D04F090022E7407F051
:100C1300A37420F0900231E4F01206D51208F5E92E
:100C2300640170031206B8790112082C7A507B0212
:100C3300120CB17A5E7B011208CE900230740BF075
:100C4300120B4C0206B8E914604C14602124F160C5
:100C53004A2490603724FD602414601724FC601834
:100C630024F8602D24EC601A24F0601B80327A6330
:100C73007B02227A687B02227A6D7B02227A727B64
:100C830002227A777B02227A7C7B02227A817B02A0
:100C9300227A867B02227A8B7B02227A907B022243
:100CA3007A957B0222E9C39A500122EAF92274F36E
:100CB30012027E74D41202278A088B09851082855A
:100CC3001183AC82AD8375830275829A740E12010F
:100CD300F3740E120272AC82AD837583027582A81F
:100CE300741E1201F3120827E9F50A750C04750D39
:100CF30000780C1203DB120946120C49EAFCEBFDE7
:100D03007407120272AA82AB83120E0274021202D9
:100D13003D120951E92430C0E0740B120272D0E095
:100D2300F0AA08AB09120DE68A0C8B0DAE0CAF0DC1
:100D3300740E120272AA82AB83120DE68A0C8B0D1B
:100D4300EE250CF8EF350DF9C3E50A98E499400B4D
:100D5300AC08AD09AA82AB83120DB07AC67B0279C7
:100D63000012082A7ACE7B02790112082A7AD67BEE
:100D730002790212082A7ADE7B02790312082A7B9F
:100D8300007A00790112082B7B017A00790212089C
:100D93002B7B027A01790112082B7B037A017902FA
:100DA30012082B742C12023D7F060202E474F8121F
:100DB300027EEAF8EBF98005A3AA82AB838A828BD1
:100DC30083E070F48C828D83E0A3AC82AD838A824E
:100DD3008B83F0A3AA82AB8370EAE8FAE9FB7F0175
:100DE3000202E4C082C0838A828B838001A3E07005
:100DF300FCE582C39AFAE5839BFBD083D0822274FD
:100E0300F712027E7409120272E0FEA3E0FFEAF811
:100E1300EBF98E088F09E50824FF1EE50934FFFF6F
:100E2300E508450960338C828D83E0A3AC82AD83F2
:100E33008A828B83F0A3AA82AB8370D6EEFCEFFD8C
:100E4300EC24FF1EED34FFFFEC4D600D8A828B8393
:100E5300E4F0A3AA82AB8380E3E8FAE9FB7F020212
:020E630002E4A7
:04000005000000D324
:00000001FF
